:020000021000EC
:10200000C00A0020FD470100E54C0300E54C030039
:1020100051620300E54C0300E54C0300E54C03006E
:10202000E54C0300E54C0300E54C0300E54C0300E0
:10203000E54C0300A41604005D640300E54C0300B6
:10204000E54C0300E54C0300E54C0300E54C0300C0
:10205000E54C0300E54C0300E54C0300E54C0300B0
:10206000E54C0300E54C0300FD9E010075420100B4
:10207000894B0300E54C0300E54C0300E54C0300ED
:10208000E54C0300E54C0300E54C0300E54C030080
:10209000E54C0300B9500100E54C0300E54C03009A
:1020A000E54C0300E54C0300E54C0300E54C030060
:1020B000E54C0300E54C0300E54C0300B9200300A8
:1020C0009DF1030099F103004D180300A9F10300ED
:1020D000A1F103007D200300A5F10300B1FD020082
:1020E000F9200300E54C0300E54C0300E54C030038
:1020F000E54C0300E54C0300E54C0300E54C030010
:10210000E54C0300E54C0300E54C0300E54C0300FF
:10211000E54C0300E54C0300E54C0300E54C0300EF
:10212000E54C0300E54C0300E54C0300E54C0300DF
:04213000E54C030077
:10213400F0B5114A114C124E00F00105E3695F0736
:1021440013D40DB9334213D103EA00078F4207D1E8
:102154000B4A1A40002A0CBF00206FF00100F0BDAA
:10216400013AEBD16FF00200F9E74FF0FF30F6E7E8
:102174006FF00100F3E700BF809698000000035061
:10218400020001000B4B70B5D96911F480310DD1F7
:1021940001244FF48072084E084DF46020462C64EC
:1021A4001A61FFF7C5FF3464EC6070BD6FF0010085
:1021B400FBE700BF00000350001003500020035051
:1021C40038B541F6713301220C4C0021E569E36313
:1021D4000B4B05F48035DA60022360612120236112
:1021E400FFF7A6FF10B92120FFF7A2FF0122054B3C
:1021F400DA600DB10023E36338BD00BF0000035073
:10220400001003500020035070B5134C6061E36963
:102214005B071ED40E4656F8043B8D18A361AE42EC
:102224000BD10423002121202361FFF781FF58B93A
:10223400BDE870402120FFF77BBF08210846FFF767
:1022440077FF10B10423236170BD56F8043BA361EA
:10225400E5E74FF0FF30F7E7000003502DE9F843BE
:10226400154641F67132164B8946DF69DA6301225D
:10227400064603F58053DFF8508007F48037DA60B0
:1022840055B9284601220F4BDA601FB10022A3F58D
:102294000053DA63BDE8F88306F5005404EA080441
:1022A400A41BAC4228BF2C46494622463046FFF7C1
:1022B400ABFF0028E6D12644A1442D1BE0E700BF74
:1022C400000003500020035000E0FFFF0000000066
:1022E000013800D0FCE77047002370B5404C05462C
:1022F0008AB0E36318B1008823600EF0A7F83D4868
:102300002CF082FA3C4E3D4B304633603C4B7360C0
:1023100027F08EFE0021304619F0C4F932A3D3E92C
:102320000023A062C4E9062327F08DFED4E906232A
:1023300019431043C4E90601CDE900014FF0FF3312
:102340004FF0FF32A06A2CF0B3FA02224FF0FF31B7
:10235000A06A2CF0B2FA01200DF0D4FC4FF4007307
:1023600000222849A06A2CF0F9FAB0F5007F38D194
:1023700000239422CDE9073309933C23CDE90332AE
:1023800005939623A06A03A9069319F073FA35B34F
:10239000287C0EF0FBF80546F0B9A06A2CF0BAFBD9
:1023A0000EF0A2F80DF090FC20B14FF480700021E7
:1023B0000AF018FD0DF098FC20B14FF400600021E8
:1023C0000AF010FD27F065FF012019F0C1F90E4A4F
:1023D0000E49A06A27F02AFE28460AB070BDFF20E9
:1023E000D7E70725F8E700BF0DD50155200000000D
:1023F000300B0020690345ECAC21002089FB010073
:10240000BC210020AC1F0020D59F030015A00300B5
:102410000348044B834202D0034B03B11847704773
:102420005C3700205C37002000000000064B0749A5
:10243000C91A891048BF0131491003D0044B0BB1B0
:1024400001481847704700BF5C3700205C37002008
:102450000000000010B5064C237843B9FFF7D8FF01
:10246000044B13B10448AFF300800123237010BD67
:10247000EC290020000000008846040008B5054B48
:102480001BB105490548AFF30080BDE80840FFF7E0
:10249000CDBF00BF00000000980D0020884604005A
:1024A000A3F5803A704700BF174B002B08BF134BB2
:1024B0009D46FFF7F5FF00218B460F461348144A4F
:1024C000121A2CF012FF0E4B002B00D098470D4B28
:1024D000002B00D098470020002104000D000D487B
:1024E000002802D00C48AFF3008020F0F7FD200058
:1024F000290022F099FA20F003FC00BF0000080038
:102500000000000000000000C00A0020C00A0020F7
:1025100040330020000000000000000038B5234CCC
:10252000234D22F07CFB22F07BFB2249206823F024
:102530001FFC22F074FB22F073FB2A681E492068FE
:1025400023F016FC22F06BFB22F06AFB6A681B4941
:10255000206823F00DFC22F062FB22F061FBA868EA
:102560001FF05CFF0B4602461549206823F000FC73
:1025700022F055FB22F054FB4FF4FA721149206807
:1025800023F0F6FB22F04BFB22F04AFB0E494FF4FE
:102590007A72206823F0ECFB22F041FB22F040FB32
:1025A00020680A49BDE8384023F0E2BBB0120020A1
:1025B000880E002088020400A9020400BF02040063
:1025C000CE020400E8020400E4020400BB0304009D
:1025D00010B50A490A4C097823792278094800F095
:1025E000C7FD22F01CFB22F01BFBD4E90023BDE851
:1025F000104005480549006823F0BABB3237002077
:10260000880E0020ED290020B0120020F9020400FD
:1026100008B5034822F04CF80022024B1A6008BDAE
:10262000B40D0020B00D0020F0B5052501264C4C5E
:102630008BB0FFF7EDFF22684A49531C2360D2B2EA
:102640000023CDE901564848009522F0A8F92268F8
:10265000464993192360D2B20023CDE9015642487E
:10266000009522F09CF91421414F424A3B680DEB42
:10267000010020F0AFFC226805A993192360D2B2B3
:102680000023CDE901563848009522F088F914213D
:102690007B68394A0DEB010020F09CFC226805A9FB
:1026A00093192360D2B20023CDE901562E4800953C
:1026B00022F075F922682D4993192360D2B20023C4
:1026C000CDE901562848009522F069F93B68226857
:1026D000002B3BD191192160CDE901562749009586
:1026E000D2B205250126204822F059F922681F4957
:1026F000531C2360D2B20023CDE9015600951A483D
:1027000022F04DF914214FF4FA730DEB01001C4A2D
:1027100020F060FC226805A993192360D2B200233F
:10272000CDE901560095104822F039F92268154983
:1027300093192360D2B20023CDE9015600950A48CF
:1027400022F02DF900F034FE0BB0F0BD531C2360D5
:102750000D490023CDE901560095D2B2C1E700BF73
:10276000B00D00201D030400B40D00202F03040051
:10277000880E0020430304004F0304005C030400A0
:1027800075030400840304006A03040010B50948BB
:1027900001F03EF9044648B122F041FA22F040FA35
:1027A000054B22460549186823F0E2FABDE81040BF
:1027B000FFF73ABF880E0020B012002095030400F6
:1027C000F0B5A74C8BB022F02AFA22F029FAA549DD
:1027D000206823F0CDFA22F022FA22F021FAA24951
:1027E000206823F0C5FA22F01AFA22F019FA9F495C
:1027F000206823F0BDFA22F012FA22F011FA9A4969
:10280000206823F0B5FA22F020FAE8B19849206850
:1028100023F0AEFA9749206823F0AAFA22F0FFF9D4
:1028200022F0FEF9944B954A009395493223206893
:1028300023F09EFA9349944A206823F099FA934929
:10284000206823F095FAFEE700F08AFDE8B1884998
:10285000206823F08DFA8749206823F089FA22F056
:10286000DEF922F0DDF9844B844A00938449352354
:10287000206823F07DFA8349854A206823F078FA9E
:102880008449206823F074FAFEE7834E304600F056
:10289000CFFD0546E8B17649206823F069FA75490D
:1028A000206823F065FA22F0BAF922F0B9F9724BE8
:1028B000724A009372493823206823F059FA71490B
:1028C000764A206823F054FA7549206823F050FABC
:1028D000FEE76FF07F43C6E90130304621F0E8FEA5
:1028E0007049304622F048F822F099F922F098F920
:1028F0006D49206823F03CFAFFF78AFE0523012288
:102900006A49CDE9013200932A462B46304622F02F
:1029100046F800F04DFD664A0495049B934240F250
:10292000948022F07CF922F07BF96249206823F040
:102930001FFA00F085FF0646002800F08A8022F08A
:102940006EF922F06DF932465B492068052523F0C7
:102950000FFA0127FFF75CFE002358491A46CDE91C
:1029600001574D48009522F01AF800233A46544981
:10297000CDE901574848009522F011F8142133465B
:10298000504A0DEB010020F025FB05A9002302228F
:10299000CDE901574048009522F001F800F008FD0C
:1029A00022F03DF922F03CF94749206823F0E0F994
:1029B0000525FFF72DFE01260023CDE901561A4615
:1029C00042490095344821F0EAFF0023324640494D
:1029D000CDE901560095304821F0E1FF00F0E8FC18
:1029E00022F01DF922F01CF93A49206823F0C0F9C1
:1029F00000234FF4FA71384A3848009601F0E0FDA0
:102A00000546002876D01A49206823F0B1F9194903
:102A1000206823F0ADF922F002F922F001F9304BE1
:102A2000164A00931649F323206823F0A1F92D4993
:102A30002B462D4A206823F09BF9284601F064FDBF
:102A40002A49206823F094F9FEE7049B013304939C
:102A500063E722F0E4F822F0E3F82549A5E700BF98
:102A6000B0120020CB020400B1030400DC03040018
:102A7000CC02040006040400EB0604000B0404006E
:102A80001404040037040400200404004F0404006C
:102A90006104040072040400B40D002082040400E8
:102AA00094040400A0080400A5040400B704040072
:102AB0001FA10700C7040400E9040400190504006D
:102AC00027050400380504004505040097050400A7
:102AD000A5050400B80504008D270100500E002054
:102AE000F4060400DC050400D9050400F105040027
:102AF0006C05040003464FF47A71354A3548009658
:102B000001F05EFD054608B33349206823F030F933
:102B10003249206823F02CF922F081F822F080F865
:102B20002F4B304A00933049F723206823F020F9D7
:102B30002E492B462E4A206823F01AF9284601F028
:102B4000E3FC2C49206823F013F9FEE703464FF419
:102B5000FA61294A2948009601F032FD054608B37A
:102B60001D49206823F004F91C49206823F000F96E
:102B700022F055F822F054F8194B1A4A00931A49DA
:102B8000FB23206823F0F4F818492B46184A2068E4
:102B900023F0EEF8284601F0B7FC1649206823F030
:102BA000E7F8FEE722F03BF822F03AF814492068F3
:102BB00023F0DEF822F033F822F032F811492068D1
:102BC00023F0D6F80BB0BDE8F040FFF72DBD00BFF5
:102BD000D1250100180E0020CC02040006040400D8
:102BE000F40604000B04040014040400DC050400D3
:102BF000D9050400F10504001D250100E00D0020A9
:102C0000020604001706040070B503689B4A23F40B
:102C10007F4323F0070393428AB000F0228102F140
:102C20008072934200F05281954A934240F017819E
:102C3000944C21F0F4FF21F0F3FF9349206823F036
:102C400097F80DF1170106A811F00EFB054610B319
:102C50008E49206823F08CF88D49206823F088F88D
:102C600021F0DDFF21F0DCFF8A4B8B4A00938B497A
:102C70004FF48C73206823F07BF889492B46894AEE
:102C8000206823F075F8284601F03EFC864920684C
:102C900023F06EF8FEE7BDF81C3001465BBAADF8D4
:102CA00020309DF81B3008228DF82230FF238DF84C
:102CB0002330FE238DF824309DF81A3018208DF82B
:102CC0002530BDF818305BBAADF8263008AB11F0EE
:102CD0009DFA054610B36D49206823F049F86C4908
:102CE000206823F045F821F09AFF21F099FF694B05
:102CF000694A0093694940F22513206823F038F8A7
:102D000067492B46674A206823F032F8284601F0CD
:102D1000FBFB6549206823F02BF8FEE7634E304645
:102D200011F0D6F9054610B35849206823F020F871
:102D30005749206823F01CF821F071FF21F070FF43
:102D4000544B554A0093554940F22913206823F00B
:102D50000FF853492B46534A206823F009F82846B8
:102D600001F0D2FB5049206823F002F8FEE74FF44F
:102D7000C862009003461146307811F0C1F905464B
:102D800010B34249206822F0F3FF4149206822F045
:102D9000EFFF21F044FF21F043FF3E4B3E4A0093FA
:102DA0003E4940F22D13206822F0E2FF3C492B46B9
:102DB0003C4A206822F0DCFF284601F0A5FB3A4996
:102DC000206822F0D5FFFEE70721307811F0BAF92C
:102DD000054610B32D49206822F0CAFF2C4920680F
:102DE00022F0C6FF21F01BFF21F01AFF294B2A4ACF
:102DF00000932A4940F23113206822F0B9FF284994
:102E00002B46284A206822F0B3FF284601F07CFBBD
:102E10002549206822F0ACFFFEE7254B06210293EE
:102E2000244B25481A7901921B7840F2FF22009327
:102E3000224B00F0BFF821F0F2FE21F0F1FE204914
:102E4000206822F095FF31781B4800F04DF921F001
:102E5000E6FE21F0E5FE1B49206822F089FF0AB05A
:102E600070BD21F0DCFE21F0DBFE064B1649186830
:102E70000AB0BDE8704022F07BBF00BFA000060092
:102E8000A0000100B01200203E060400CC020400A5
:102E900006040400DC0604000B040400140404000F
:102EA000DC050400D9050400F105040032370020D8
:102EB00055060400880E0020ED290020647016716C
:102EC00065060400840604009E0604002E4C2F4E66
:102ED00021F0A5FE21F0A4FE2D49206822F048FF34
:102EE0000221307811F058F9054610B329492068BD
:102EF00022F03EFF2849206822F03AFF21F08FFEA1
:102F000021F08EFE254B264A0093264940F24913B4
:102F1000206822F02DFF24492B46244A206822F005
:102F200027FF284601F0F0FA2149206822F020FF0F
:102F3000FEE70221307811F043F9054600288ED0D3
:102F40001449206822F014FF1349206822F010FF72
:102F500021F065FE21F064FE104B114A00931149E7
:102F600040F24D13206822F003FF0F492B460F4A11
:102F7000206822F0FDFE284601F0C6FA0C492068C0
:102F800022F0F6FEFEE700BFB0120020323700202C
:102F9000B2060400CC02040006040400DC060400AF
:102FA0000B04040014040400DC050400D90504002B
:102FB000F10504002DE9F34104466271120AA27181
:102FC0001A0EE2711A0C0226A17022720B211A0A43
:102FD000A37224232670E1700126FF216373052369
:102FE0009DF824009DF820500A9F00F07F00667035
:102FF000E5722073217138466272A3732CF0A0F938
:1030000014280546304E5BD90823237421F007FEAF
:1030100021F006FE14222D49306822F0A9FE142565
:1030200004F111081322394640462CF066F90023BA
:1030300084F82430E37801350533EDB2E5731D449F
:1030400084F8265021F0EBFD21F0EAFD204930689C
:1030500022F08EFE21F0E3FD21F0E2FD94F826201F
:103060001C49306822F084FE21F0D9FD21F0D8FD02
:10307000A37A19490193637A0093237AE27930683D
:1030800022F076FE21F0CBFD21F0CAFDE27A134951
:10309000306822F06DFE21F0C2FD21F0C1FD227BDF
:1030A0000F49306822F064FE21F0B9FD21F0B8FD2F
:1030B00042460C49306802B0BDE8F04122F058BEEB
:1030C00009232374ACE700BFB0120020FD06040002
:1030D0002A0704003F070400580704007B07040088
:1030E0008A0704009907040070B590F8262004466A
:1030F0001F2A0E46194D0BD921F091FD21F090FDAC
:1031000094F8262016492868BDE8704022F030BEA9
:1031100003460021304611F029F8044630B121F071
:103120007EFD21F07DFD22460E49ECE7022130466E
:1031300011F046F8044630B121F071FD21F070FD28
:1031400022460949DFE721F06AFD21F069FD286880
:103150000649BDE8704022F00BBE00BFB01200204F
:10316000AD070400E5070400160804004408040045
:1031700010B5044603F07F03E2722373084623462A
:1031800094F82620002110F0F1FF044658B121F0F8
:1031900046FD21F045FD044B2246BDE810400349A1
:1031A000186822F0E5BD10BDB012002069080400C7
:1031B0000123054A411100F01F00834052F821000D
:1031C000034342F821307047940E0020044B1B68E3
:1031D0001BB1044B0360002070470120704700BF03
:1031E000A40E00206829002070B50D4C246884B11D
:1031F0000C4C85182688B5420DDC6688CD18B54282
:1032000009DC52B14BB1A0800020E18022816381B2
:1032100070BD0120FCE70420FAE70520F8E700BFB5
:10322000A40E0020682900202DE9F74F9946494B4C
:103230001B68002B00F08A80B9F1000718BF012736
:103240004FF0010BDFF814A17F42BAF80650BAF82C
:103250000A300D9E2B449BB20D440093FFB2ADB2D9
:103260001EB9304603B0BDE8F08F009AABB29A4267
:103270006ED9BAF80840BAF80430241AB44228BF0C
:1032800034461844344B361B80B203EB0512B9F1B7
:10329000000F0AD0072C26D80444A04216D3284693
:1032A000FFF786FF01350020DAE7072C1BD804441E
:1032B000A042F4D2C108535C00F0070C0BFA0CFCDE
:1032C00023EA0C030130535480B2F1E7C10812F82D
:1032D00001C000F007030BFA03F343EA0C030130CB
:1032E000535480B2D9E74FEAD00C02EBD00810F06B
:1032F00007000BD1E2083946404601922BF0F5FF5A
:1033000014F00704019ACAD0904412E00BFA00F3BB
:1033100012F80CE0DBB2591E5B420EEA01013B40A1
:1033200008381943044402F80C10E20808F10108B7
:10333000E1D10BFA04F498F80030E4B26242013CA7
:1033400013403C40234388F80030A8E7012688E773
:10335000042686E7A40E0020142A002068290020F5
:1033600037B5114D2B68EBB900F070F9044610B178
:10337000012003B030BD00F05DF928600028F7D0CF
:1033800002884188094B20461A801A814A43598095
:1033900059819C80DC802146CDE9004223462246AB
:1033A000FFF742FF0020E4E7A40E00206829002078
:1033B0002DE9F843002301251A461A4FDFF86C80E7
:1033C0003C68DFF86490D8F80000D61841888E4237
:1033D00007D3FBB91022002112482BF086FF0020F2
:1033E00012E0E10708D50133D118C9060ABF57F822
:1033F000254064080135E6E753B109EB021100F0FE
:10340000B1F8034610B10720BDE8F883721CEBE762
:103410000132E9E7044901EB021100F0A3F80028AA
:10342000D8D0F0E7940E0020142A0020A40E00202B
:1034300030B5054687B000B300226FF07F43C0E986
:10344000012301A8FFF7C2FE044698B9019BCDE90C
:1034500002001A882B605B88013A013B284602A9CA
:103460000492059321F04FF9044618B928460449FF
:1034700021F082FA204607B030BD0524FAE700BFEC
:10348000D00B04000122014B1A61704700F0035079
:1034900013B5044606F074FB00230122217BCDE91D
:1034A00000324900B0FBF1F1024A034822F011FF5B
:1034B00002B010BD85340100BC0E0020F7B508260F
:1034C0000E4C054604F580531E67407B06F054FD04
:1034D00004230B4F02220DF106013846ADF80630E9
:1034E00021F08CFA384621F09AFAA87B06F044FDC8
:1034F000002004F50054266703B0F0BD00C003505F
:10350000F034002070B50646124822F062FBB16824
:103510000022114800F0AAF800230422032102200F
:1035200002F01CFC002335460C4C042219461846B8
:1035300002F014FC0FCD0FC401222B68304623602B
:10354000074B1A70FFF7A4FF3046FFF7B7FF0020C4
:1035500070BD00BFAC180400F0340020A80E00209D
:10356000143200202DE9F04FA7B0174698460646C2
:103570000191002856D0002954D0B8F1000F51D045
:103580007F2A4FD808EB0203802B4BD84FF001095C
:103590000588ED0812FB05F45FFA85FB0BF10203C9
:1035A00026AA52FA83F3A4B2029301238DF81430B1
:1035B00007EB09038DF81530019B2A4619190DF107
:1035C00016002BF0B0FE00234FF0080A029A02F812
:1035D000843C154BC3F870A0707B06F0CDFC0BF15A
:1035E0000302D2B205A9114821F008FA1049024697
:1035F00028B1C1F870A0104627B0BDE8F08F039045
:103600000A4821F00CFAB07B06F0B6FC08492C44BD
:10361000C845039AC1F870A009F10103A4B2EAD029
:103620009946C2E72122E6E700D00350F03400209B
:1036300000E00350034B04481B78002B08BF002018
:10364000704700BF14320020A80E002030B5064D90
:1036500087B001AC0FCD0FC42B6801A82360FFF722
:1036600051FF07B030BD00BF000F04002DE9F04F3F
:1036700004462D4E89B001AD894690460FCE0FC548
:1036800096E80700D4F800B0284B85E807009B4572
:1036900045D003F580439B4543D0254DAB450CBF3A
:1036A00002254FF0FF35DFF890A022480AEB4517BE
:1036B000D7F8AC6522F08DFA606822F08AFA617B57
:1036C000207B0023042202F049FB0422617A207A45
:1036D000002302F043FB0123584601A98DF8123064
:1036E000CDF80C90ADF8148021F0F2FB0020627A46
:1036F000237A2E3543EA02430AEB451ACAF804300E
:10370000627B237B06F0040643EA024346F0180678
:10371000C7F8C035C7F8AC6509B0BDE8F08F002523
:10372000C1E70125BFE700BF140F0400008005506A
:1037300000000650AC18040000C0035010B5104B38
:1037400086B001930223ADF80C300E4B8DF80000CB
:103750008DF80110186801A9CDF808D001F088FA99
:10376000044650B121F05BFA21F05AFA064B22468A
:103770000649186822F0FCFA312006B010BD00BFDF
:10378000AE00010014350020B0120020300F0400FC
:1037900010B5114B88B003930DF107030493012377
:1037A000ADF81430ADF81C300C4B8DF807000691C5
:1037B000186803A901F05CFA044650B121F02FFA11
:1037C00021F02EFA064B22460649186822F0D0FA5C
:1037D000312008B010BD00BFAE0004001435002039
:1037E000B0120020460F040010B5114B88B00393AF
:1037F0000DF1070304930123ADF814300D4B8DF840
:1038000007000691186803A9ADF81C2001F030FAF2
:10381000044650B121F003FA21F002FA064B224689
:103820000649186822F0A4FA312008B010BD00BF84
:10383000AE00040014350020B01200205B0F04001D
:1038400037B5634D21F0EBF921F0EAF961492868B9
:1038500022F08EFAFF200DF10201FFF799FF0446D6
:1038600040B121F0DCF921F0DBF95B49286822F056
:103870007FFA16E021F0D3F921F0D2F99DF8022069
:103880005649286822F074FA9DF80230152B0BD0A7
:1038900021F0C5F921F0C4F95149286822F068FAED
:1038A0000124204603B030BDFE200DF10301FFF7D7
:1038B0006FFF48B921F0B3F921F0B2F99DF8032068
:1038C0004849286822F054FA21F0A9F921F0A8F912
:1038D0004549286822F04CFA40210920FFF72EFFC5
:1038E00004460028DDD1414A0190019B93426BDDE3
:1038F00021F095F921F094F93D49286822F038FA31
:1039000050210820FFF71AFF04460028C9D121F0F2
:1039100086F921F085F93749286822F029FA6721CC
:103920000A20FFF70BFF04460028BAD121F077F9EF
:1039300021F076F93049286822F01AFA24210C2067
:10394000FFF7FCFE04460028ABD124210D20FFF731
:10395000F5FE04460028A4D121F061F921F060F9B8
:103960002649286822F004FA03210920FFF7E6FE21
:103970000446002895D121F052F921F051F920494F
:10398000286822F0F5F921460420FFF7D7FE044607
:10399000002886D101460620FFF7D0FE0446002805
:1039A0007FF47FAF01460520FFF7C8FE04460028DC
:1039B0007FF477AF134B1870134B187021F02FF969
:1039C00021F02EF9114951E7019B013301938CE756
:1039D000B01200207A0F0400A10F0400D00F0400E1
:1039E000ED0F0400191004003A1004001FA1070095
:1039F0005A1004007A1004009A100400BA1004004F
:103A0000DB1004001732002016320020F8100400EA
:103A10002DE9F04F2DED028B0023A5B007460DF1E7
:103A2000170106A88DF8173021F008F81B28064664
:103A300050D0002850D021F0F2F821F0F1F87A4B64
:103A400032467A49186822F093F9304625B0BDEC29
:103A5000028BBDE8F08F24AB217803EBC20252F851
:103A6000749C52F878AC724B042948F8219043F8C2
:103A700021A00CD821F0D3F821F0D2F86A48CDF873
:103A800000A04B4622786B49006822F071F9237838
:103A900001350133DBB2632B81BF00230122237088
:103AA000654B94BF23701A709DF81730EAB29342A9
:103AB000D1D8614B1C78A4B921F0B1F821F0B0F84D
:103AC0005E4A5948642312785D49006822F050F933
:103AD000C7E900440026B8E70546584CDFF86C817A
:103AE000E2E70023DFF86481DFF84491C646CC4664
:103AF0001C461D46184619465EF8042B0133101863
:103B000041EBE2715CF8042BDBB2141945EBE27572
:103B1000642BF1D1642200231EF012FF64220023E3
:103B20008246294620461EF00BFF3F4C029021F0B2
:103B300076F821F075F8029B52464249206822F03F
:103B400017F94CF24F339A450CDC21F068F821F05C
:103B500067F852463C49206822F00AF90023C7E979
:103B60000033B7E7002001460346384D55F8042BD3
:103B700001331018DBB241EBE271642BF6D1642201
:103B800000231EF0DDFE0546002001460246DFF858
:103B9000BCC05CF8043B0132D2B25B1B642AC3FB9D
:103BA0000301F6D11EF064FC294B00221EF0B8FD83
:103BB00041EC100B1FF076FE51EC100B1EF098FE3E
:103BC00000EBD07205EB620B039021F028F821F096
:103BD00027F8CDF800B02A46039B1E49206822F042
:103BE000C7F8002505201C4BDA68934515DA99685B
:103BF0008A4212DD59688A420FDD19698A420CDD5A
:103C000059698A4209DD19688A4206DD99698A4242
:103C100003DD124A25BB0125108001305F2803F126
:103C20000403E1D12DE000BFB012002020110400F8
:103C3000DC0E00203A11040016320020173200205A
:103C400058110400721104008F1104006C10002040
:103C500000005940C0110400741000207429002095
:103C600005F10041013932F811C0A0EB0C0CBCF198
:103C70001E0FD2DD0135EDB20232132D22F81100F4
:103C8000CBD920F0CCFFDFF8D0B120F0C9FF2A4615
:103C90006349206822F06CF8012D8BF8005040F247
:103CA000A68001225F490B4648881B880132D2B2A8
:103CB000C31AAA4201F102011E44F4D1013AB6FB33
:103CC000F2F641F27075B5FBF6F520F0A8FF20F092
:103CD000A7FF2B4632465449206822F049F8A5F147
:103CE0002803A02B7CD83D6020F099FF20F098FF9E
:103CF0002A464E49206822F03BF84D4B01211A68B4
:103D00004C4B15461B68184658F8046F0131B242F7
:103D1000B8BF3246B542A8BF354659F8046FC9B29C
:103D2000B342B8BF3346B042A8BF30466429EBD196
:103D3000551B1E1A20F073FF20F072FF33462A46EF
:103D40003D49206822F014F8642D5FDD642E5DDDAE
:103D5000029B002B5ADD07EE103A07EE906AB8EE90
:103D6000C77AF8EEE77A87EE876A07EE905A07EE91
:103D700010AAF8EEE77AB8EEC77AC7EE876A9FED29
:103D80002F8AC6EE268AF3EE017A08EEE78AFDEE68
:103D9000C87A17EE905A20F042FF20F041FF18EE4B
:103DA000900A1EF03BFB804618EE100A89461EF072
:103DB00035FBCDE900014B4642462149206821F000
:103DC000D7FFA5F146031E2B19D87D6020F027FFF1
:103DD00020F026FF2A461B49206821F0C9FF79E61A
:103DE00020F01DFF20F01CFF2A46174982E720F033
:103DF00016FF20F015FF9BF8002014497AE720F009
:103E00000EFF20F00DFF2A461149E5E720F007FFDD
:103E100020F006FF0F49206821F0AAFF5AE600BFF4
:103E2000F311040074290020041204002812040075
:103E30006C100020DC0E00209E1204000000D04216
:103E4000BB120400D1120400401204006C120400E2
:103E5000E9120400151304001532002030B5036880
:103E60007C4A23F47F4323F00703934289B040F058
:103E7000EE80082200211220774B10F0C7F904468B
:103E800010B3764D7649286821F072FF754928688D
:103E900021F06EFF20F0C3FE20F0C2FE724B734A89
:103EA000009373495C23286821F062FF714923461F
:103EB000714A286821F05CFF204600F025FB6F491D
:103EC000286821F055FFFEE70146032214206C4BC1
:103ED00010F09CF9044610B3604D6149286821F048
:103EE00047FF6049286821F043FF20F098FE20F04A
:103EF00097FE5D4B5D4A00935D496A23286821F077
:103F000037FF5C4923465C4A286821F031FF204690
:103F100000F0FAFA5949286821F02AFFFEE7014625
:103F200005221620574B10F071F9054610B34B4C83
:103F30004B49206821F01CFF4A49206821F018FFF6
:103F400020F06DFE20F06CFE474B484A0093484934
:103F50007823206821F00CFF46492B46464A20680A
:103F600021F006FF284600F0CFFA4449206821F0EE
:103F7000FFFEFEE70DF10F0104A810F075F90446ED
:103F800010B3364D3649286821F0F2FE35492868CD
:103F900021F0EEFE20F043FE20F042FE324B334A89
:103FA000009333498323286821F0E2FE31492346F8
:103FB000314A286821F0DCFE204600F0A5FA2F499E
:103FC000286821F0D5FEFEE7BDF8143001465BBA43
:103FD000ADF818309DF8133008228DF81A30FF2301
:103FE0008DF81B30FE238DF81C309DF81230182000
:103FF0008DF81D30BDF810305BBAADF81E3006AB41
:1040000010F004F9054610B3144C1549206821F04E
:10401000AFFE1449206821F0ABFE20F000FE20F036
:10402000FFFD114B114A009311499323206821F0A1
:104030009FFE10492B46104A206821F099FE284621
:1040400000F062FA0D49206821F092FEFEE709B007
:1040500030BD00BFA000010046130400B0120020D4
:10406000CC02040006040400811304004F13040072
:1040700014040400DC050400D9050400F105040063
:10408000771304007B13040007B501A802F0A0F920
:104090009DF80530012B27D1214A936DDB0313D402
:1040A000536B23F4FF0323F4FE4343F4BC1343F4A4
:1040B000A0635363136B23F4704343F440431363CF
:1040C000136B43F4E06313639DF8043063B94FF05E
:1040D00000531B68134B1B68134B1B68134B1B6867
:1040E000134B1B68134B1B68134AD2F8803043F004
:1040F0000303C2F8803003F0E1FF00F057FB21F02A
:10410000EAFD21F05AFD04F0B5FA00F045FB00F09D
:1041100089FC01F00BF803B05DF804EB04F0DEBF9E
:1041200000C00050004000200080002000C000209F
:1041300000000120004001200080005008B5044824
:1041400021F047FDBDE80840024800F025BD00BF52
:10415000AC1804000035002030B5204D95B00DACF2
:104160000FCD0FC495E80700032384E8070001245E
:104170008DF84D301A4A1B4B0021CDE903231A4B11
:104180000E220DF12600CDE905342BF0AEF84FF4E8
:104190008021164B0DAACDE907130B238DF824308F
:1041A0000C238DF82530124B07A90A9320230B937B
:1041B000104B1148009303AB8DF8314004F09CF98B
:1041C00004469DF832304FF4E130002B0CBF032140
:1041D000002120F078FD204615B030BDDC1504002C
:1041E00000800550210005000600040224800550CF
:1041F00018320020FC1100204C120020831E012BDD
:1042000010B512D8012922D8114B04221B690521AF
:104210000020C3F3401301F0A1FD0E4B1B6818688A
:10422000A8B1BDE81040436A18478B1E012B0CD87B
:1042300001280CD8BDE810400022054B05211B6960
:104240001046C3F3401301F089BD0129E5D910BD23
:1042500000C003501835002008B50449044804F094
:10426000F7FFBDE80840FFF777BF00BF1C3500200F
:1042700070120020014821F012BF00BF4C12002034
:10428000014B1A6A186810474C120020184B37B5BA
:1042900083422AD1174B1B783BB3C8B20FF0A4FF5F
:1042A000054610B3144C1549206821F061FD1449EE
:1042B000206821F05DFD20F0B2FC20F0B1FC114B34
:1042C000114A009311498523206821F051FD1049BE
:1042D0002B46104A206821F04BFD284600F014F9C7
:1042E0000D49206821F044FDFEE703B030BD00BF5A
:1042F0007812002038320020B0120020CC020400D6
:10430000060404006E160400F815040014040400EA
:10431000DC050400D9050400F105040030B50025D2
:104320000368584A23F47F4323F0070385B0934280
:1043300004460295ADF80C507ED002F580229342DF
:104340000ED0A2F18272934240F09A804E4B1B78BD
:10435000002B00F0958005B0BDE8304022F071B828
:10436000B0F805301B2B40F08B80FF2304A91A46C0
:1043700011E9030020F04CFC012814BF41F2FC15A8
:10438000414B05F0FC0208BF18701B2120790FF08B
:1043900053FF054610B33D4C3D49206821F0E8FC31
:1043A0003C49206821F0E4FC20F039FC20F038FC86
:1043B000394B3A4A00933A495923206821F0D8FCF6
:1043C00038492B46384A206821F0D2FC284600F0B4
:1043D0009BF83649206821F0CBFCFEE73449009079
:1043E0002379344A0968344800F0EAF80546002881
:1043F00046D0264C2649206821F0BAFC2549206881
:1044000021F0B6FC20F00BFC20F00AFC224B234AE2
:10441000009323496223206821F0AAFC21492B46FE
:10442000214A206821F0A4FC284600F06DF81F49BD
:10443000206821F09DFCFEE7B0F80530B7EE047A65
:1044400007EE903AF8EE677AB0F8073067EE877AB1
:10445000013307EE103AB8EEC77A67EE877AB1EE0D
:10446000047A67EE877AFAFE677AFCEEE77A17EE4F
:10447000903AB3F57A7F38BF4FF47A730C4A1360E1
:1044800005B030BDA000060238320020B012002076
:10449000CC020400060404007D160400F815040094
:1044A00014040400DC050400D9050400F10504002F
:1044B000243500208D42010078120020012208B529
:1044C000074B1A700022074B1A700422064B1A7011
:1044D0001F22064B1A7003F06FFE054B186008BDD3
:1044E00035370020393200203437002033370020A0
:1044F000B0120020024B0349186821F039BC00BFFC
:10450000B01200209D16040070B50C4C0C490646F4
:10451000206821F02DFC03F04FFE0546206803F0D3
:104520003FFE3046FFF7E6FF284603F039FE2068DD
:104530000449BDE8704021F01BBC00BFB012002050
:104540009F160400A116040038B5054620F0E6FBCE
:1045500000230B4A14685CB1AC4206D1A96A6BB166
:10456000996220F0E1FB012007E02346A46AF2E70C
:10457000002DF3D020F0D8FB204638BD1160F0E7C5
:10458000B412002010B50446B0B105F04BFA204635
:10459000FFF7DAFF10B194F82C300BB9002010BDF2
:1045A000064C2368002BF9D020F0B8FB2368013BB0
:1045B000236020F0B9FBF1E72220F0E7B8120020D9
:1045C0002DE9F04385B00546914698460E469DF884
:1045D000307009B9002F5CD12846FFF7D3FF04469D
:1045E000002836D185F82C00686305F029FB864247
:1045F00033D905F0C5FA2146844640F2E7304FF43E
:104600007A720023E6FB0C011EF0EAF94FF0FF324C
:1046100000231EF0E5F92B46E88611462846CDE931
:1046200000441D4A21F095FE044690B9C5E908985A
:1046300085F82D702E6320F071FB184A136833B390
:104640001A469B6A002BFBD195620023AB6220F0D7
:104650006BFB204605B0BDE8F08347B12B463146E1
:104660002846CDE900440C4A05F0AEFADCE73046B6
:1046700003A905F08BFA04460028EAD12B46284608
:10468000CDE90077044A039921F03FFECCE715609D
:10469000DBE72124DDE700BFA1460100B4120020C2
:1046A00091F82C3013B50C4683B98B8ECA8E934289
:1046B0000ED243B9CDE9003320460B46124A4FF0E3
:1046C000FF3121F006FEA38E0133A38602B010BD98
:1046D00052B191F82D3093B101230093D1E9082311
:1046E0002046096BFFF76CFF012384F82C30074B41
:1046F0001A6801321EBF1A6801321A60E6E70846DE
:1047000005F090F9F0E700BFA1460100B8120020C3
:104710002DE9F041154E336833B34FF00008144FC4
:1047200020F0FCFA05463C6824B92846BDE8F04173
:1047300020F0FABA94F82C30A3B1336884F82C80B6
:1047400013B13368013B336094F82D3013B9204620
:10475000FFF7FAFE284620F0E7FAD4E908312046B0
:104760009847DDE7A46ADFE7BDE8F081B8120020D2
:10477000B4120020034B1B68002B14BF042001203F
:10478000704700BFB8120020024B1868B0FA80F0E2
:1047900040097047B812002008B5034821F019FA03
:1047A000BDE8084020F0BDB9AC180400014821F074
:1047B00010BA00BFAC18040007B5082020F0BEFAFC
:1047C00002238DF80030054B6846019320F03FFA34
:1047D000082003B05DF804EB20F0BBBA006A1810A3
:1047E0000348044A0449121A921020F07CBA00BF10
:1047F00034210100D42201004033002008B500F02C
:104800002FF8FFF7EDFF124B12498B4212D3002015
:10481000114B12498B4218D3FDF746FE186850F829
:104820002240586840F82240013298688242F5D30D
:104830000C33EAE70022F8E71C6844F82200013252
:104840005C68A242F8D30833E4E70022F8E700BF2F
:10485000904604009C4604009C4604009C460400CC
:10486000124B134A70B59A60D3F88820114D42F468
:104870007002C3F888206FF0010205F5005422662B
:1048800041F2FF7262660222C3F8D020BFF34F8F5D
:10489000BFF36F8F4FF44036032003F05FFC03201B
:1048A000E66003F04DFC2E6170BD00BF00ED00E03E
:1048B0000020010000800044014B1868704700BFD1
:1048C0002C350020014B1860704700BF2C350020AC
:1048D000084B1B6F03F00703022B04D0032B05D0FA
:1048E000012B05D0FEE7044B18687047034BFBE72C
:1048F00003487047008000502C35002034350020DC
:10490000002D310108B5FFF7E3FF054B1B6FC3F323
:1049100001330133B0FBF3F0024B186008BD00BF58
:1049200000800050283500200048704700B4C404BF
:10493000014B1868704700BF34350020054B1860E4
:10494000054B1B6F03F00703032B01D1FFF7DABF01
:10495000704700BF34350020008000500048704789
:10496000002D3101174B9868C0F304400C280AD879
:10497000DFE800F00B0909090909072119091B1DC6
:104980001F0011487047002070479B6803F0407378
:10499000B3F1807F11D0B3F1007F10D00B4A002B10
:1049A00008BF104670470A4870470A4870470A48CF
:1049B00070470A4870470A4870470A4870470A48D3
:1049C000704700BF0040015A405DC60000093D002D
:1049D000C0EA210180BA8C010048E801005A620255
:1049E0000024F40080841E0040420F00014B186830
:1049F000704700BF3035002000239B6AB3F5903F1D
:104A000003D21968064A914203D0002303708360E1
:104A10007047012202709A689B694260F7E700BF05
:104A200007B0CD5E00239B6A10B5B3F5903F11D25D
:104A300019680A4A91420DD1094C227812F0FD0FF3
:104A400001D0002010BDDB6998470028FAD101236E
:104A50002370F6E74FF48170F4E700BF07B0CD5E36
:104A60003A3200204FF00053014A1A6003F044BB71
:104A700002020FF0034B5868C0F30800003818BF5B
:104A80000120704700ED00E013B50024294801948F
:104A900021F09FF8012304220321204601F05EF952
:104AA000204620F0E4F90122234B0520C3F84424DA
:104AB00001A921F084F8002839D1204BD3F8F02047
:104AC00042F00102C3F8F020D3F8FC2042F08072DB
:104AD000C3F8FC201A4AA3F55D431A60019B194AEA
:104AE00003F5D52303F2FC43B3FBF2F3164A013B73
:104AF00013610223C2F8F0304FF48073C2F804331C
:104B00004FF06043114AC3F8B02F114AC3F8802E0A
:104B1000D3F8002E42F48072C3F8002EFF2283F8EF
:104B20002020D3F8002E22F48072C3F8002E02B0A9
:104B300010BD00BFAC18040000D0035000ED00E031
:104B4000FF030040F8590D00000004E055CEACC54D
:104B5000090001004FF06043D3F8802E30B5D20732
:104B600015D501240B4D8440D5F8FC2042F080720D
:104B7000C5F8FC20D3F8002E2243C3F8002E53F8CA
:104B80002020002AF0D003F82010002030BD112092
:104B9000FCE700BF00ED00E02DE9F04303682F4A79
:104BA0000446934285B056D02D4A934250D10125F8
:104BB0002C4821F00EF801230A22A179207901F076
:104BC000CDF801230A22E179607901F0C7F80A27BC
:104BD0004FF00108244E4FF0300942F210012379C2
:104BE000A27909FB036308FA02F25A50642005F027
:104BF000C3F941F210012379A27909FB036308FA92
:104C000002F264205A5005F0B7F9013FE3D10323C3
:104C100006EB0512C2F89834A17923794A3543EAA4
:104C20000143C2F89C34E27963792D0143EA0243DF
:104C3000735140F20113ADF80030E3686946029306
:104C4000A36820680193237C8DF80C3001F004F9EF
:104C500005B0BDE8F08300250448AAE70000015A2A
:104C600000800650A418040000C00350A8180400D7
:104C700038B5054601F02CFA044C012801D1013C5D
:104C800000D138BD284601F009F9F6E7E1930400A8
:104C90002DE9F04F9A46564B85B01B7806460F46D5
:104CA0001546DDF83C909DF844B0DDF85080002BAF
:104CB00000F09780072A00F296800E9B002B00F0F0
:104CC0009280B9F1000F00F08E80129BB3F5006F57
:104CD00000F38980012803D1109B002B00F0838012
:104CE000444B03EB05131B7B002B7ED0424C102260
:104CF000002168462AF0F9FA04EB45141022A7BBFC
:104D0000394620462AF0F1FA43F210036380BBF1E2
:104D1000000F03D1E37843F00303E370364A0E9BA0
:104D200002EB451CCCE90193129B6901581E9DF8CA
:104D30004C30C0F30A0003F003039B0643EA001E55
:104D400053582E48012E00EA03004EEA0003CDF826
:104D500000A0535017D0B8F1000F2ED19CF80230AC
:104D600068F304138CF8023027E0002120462AF073
:104D7000BCFA4FF444736380BBF1000FCED1E378EB
:104D800043F03003C9E713230CF1100ECCF80C30BC
:104D90009CE80F008EE80F006FF00301DCF81C2088
:104DA000109B61F39F02012FCCF81C20CCF814302B
:104DB00003D1CCF81890CCF8043000270D4A290113
:104DC00002EB051342F80180159A28465A6069469D
:104DD00022469F605E7301F003FA384605B0BDE8D5
:104DE000F08F0748FAE70748F8E70748F6E700BFFB
:104DF0003B320020BC130020BC1200200F80FFF3C8
:104E0000028000F0018000F0078000F038B5124BFE
:104E100005461B78DBB1E0B11FF080FF0F4A00238D
:104E20001146147B54B92B6001251A0101EB0313C1
:104E30001D738C501FF078FF204638BD0133082BBE
:104E400002F11002EDD11FF06FFF0548F5E70548AC
:104E5000F3E70548F1E700BF3B320020BC13002018
:104E6000048000F0028000F0018000F038B51FF0EF
:104E700055FF002305460B4A147B6CB90133082B00
:104E800002F11002F8D101F067F9074B28461C70B7
:104E90001FF04AFF204603E028461FF045FF034865
:104EA00038BD00BFBC1300203B320020058000F05D
:104EB0000D4B10B51B78044693B1072812D81FF08C
:104EC0002DFF0A4B03EB04131A7B2AB100241C7339
:104ED0001FF02AFF204610BD1FF026FF0448FAE706
:104EE0000448F8E70448F6E73B320020BC130020F2
:104EF000068000F0028000F0018000F0154B13B531
:104F00001868002301908DF804301FF007FF124B42
:104F10001C7824B11FF008FF104802B010BD012218
:104F20001A701FF001FF0E4B01A81C731C7783F849
:104F30002C4083F83C4083F84C4083F85C4083F875
:104F40006C4083F87C4008238DF8073001F020F98D
:104F50002046E2E7F41604003B320020038000F014
:104F6000BC1300200A4A08B512785AB107280BD89A
:104F7000084A02EB00131B7B43B1002101F0FAF851
:104F8000002008BD0448FCE70448FAE70448F8E7B5
:104F90003B320020BC130020028000F0018000F0B2
:104FA000078000F00A4A08B512785AB107280BD8D2
:104FB000084A02EB00131B7B43B1012101F0DAF830
:104FC000002008BD0448FCE70448FAE70448F8E775
:104FD0003B320020BC130020028000F0018000F072
:104FE000078000F00A4A08B5127852B107280AD89B
:104FF000084A02EB00131B7B3BB101F03DF9002096
:1050000008BD0548FCE70548FAE70548F8E700BF92
:105010003B320020BC130020028000F0018000F031
:10502000078000F00D4B1B7893B1072812D889B187
:105030000B4B03EB00131B7B73B10A4B1A6D01235F
:105040008340134214BF0123002300200B707047DC
:105050000548704705487047054870473B320020B7
:10506000BC13002000000450028000F0018000F01A
:10507000078000F00B4A10B512780C4662B1072881
:105080000CD859B1084A02EB00131B7B43B101F065
:1050900005F92070002010BD0448FCE70448FAE739
:1050A0000448F8E73B320020BC130020028000F0E7
:1050B000018000F0078000F0184B2DE9F0411F6DD2
:1050C0005B6D1F4000D5FEE701260025144CDFF87C
:1050D0005880374218D02368C8F85060A3B1A1683F
:1050E000284601316268A1609847637B012B0BD190
:1050F00050B90C4B03EB45131A7B60F341021A7352
:105100001A7F60F341021A770135082D4FEA4606EF
:1051100004F11004DDD1BDE8F08100BF00000450AF
:10512000BC130020BC12002000200450024B196860
:10513000024B186815F0C2BE3835002058350020E3
:1051400070B59400224605460E462BF095F8431C98
:105150000AD058B92246314628462AF09CF8002841
:10516000034808BF002070BD0248FCE70248FAE788
:1051700010E000F021E000F024E000F010B504465B
:105180002BF07EF8431C10D088B901F049F9234672
:1051900020F003002044984201D1002010BD53F8B4
:1051A000042B0132F7D00348F8E70348F6E7034839
:1051B000F4E700BF0EE000F021E000F024E000F092
:1051C00008B51FF0A4FD014B186008BD2C1B002082
:1051D000014B18681FF09FBD2C1B002041F6713356
:1051E000124A30B5D469124DD3639368A84204F4CF
:1051F000803423F4401306D893600E4AD2F8183254
:1052000023F002030AE043F4801393600A4B9842B0
:10521000F3D9084AD2F8183243F00203C2F8183220
:1052200014B10022014BDA6330BD00BF000003500F
:10523000005A620200C0075080F0FA022E4B9842DA
:105240004AD022D82D4B984240D014D82C4B9842AB
:1052500039D00AD82B4B984232D02B4B98422FD0C2
:105260002A4B98422CD000207047294B9842FAD103
:10527000284B186F7047284B98422AD0274B9842EA
:10528000F1D1244BD3F880007047254B98422BD0A6
:1052900009D8244B984223D0234B9842E3D11D4B8D
:1052A000D3F88C007047214B984221D003F574034A
:1052B00003F510539842D6D1164BD3F89800704797
:1052C000144B986D7047134B586E7047114B586FC5
:1052D0007047104B986F70470E4BD3F8840070479F
:1052E0000C4BD3F8880070470A4BD3F890007047F6
:1052F000084BD3F8940070470048E8010024F400FC
:10530000C0CF6A0080841E0000093D0040420F00AB
:10531000405DC6000080E00FC0EA210180BA8C0128
:10532000007E560380D54302006CDC020090D0035F
:1053300038B5134B0546D3F820010C4600F00700A2
:1053400004281AD8DFE800F003090D111500012325
:1053500005B1286004B1236038BDFFF7ADFA04231E
:10536000F6E7FFF7E5FA0323F2E7FFF7FBFA052379
:10537000EEE7FFF7F3FA0223EAE700231846E7E730
:105380000080005037B50C460021114B0191D3F835
:105390008031054603F00303022B0ED0032B11D0FE
:1053A000012B03D101A8FFF7C3FF0D210DB1019B14
:1053B0002B6004B1216003B030BDFFF7D3FA0521A3
:1053C0000190F3E7FFF7CAFA02210190EEE700BF70
:1053D0000080005038B5104B0546D3F840310C46DC
:1053E00003F00303022B0BD0032B0DD0012B0FD1A5
:1053F0001FF087FC082305B1286004B1236038BD85
:10540000FFF7F4FA0723F6E71FF07EFC0923F2E723
:1054100001230020EFE700BF0080005038B5104B9B
:105420000546D3F860310C4603F00303022B0BD082
:10543000032B0DD0012B0FD11FF063FC082305B106
:10544000286004B1236038BDFFF7D0FA0723F6E7E0
:105450001FF05AFC0923F2E701230020EFE700BF09
:105460000080005038B5144B0546D3F800020C46B6
:1054700000F0070004281BD8DFE800F003090D1135
:105480001500012305B1286004B1236038BD1FF069
:1054900038FC0823F6E7FFF7A9FA0723F2E71FF025
:1054A00033FC0923EEE7FFF72DFA0C23800AE9E726
:1054B00000231846E6E700BF0080005038B5144BC3
:1054C0000546D3F808020C4600F0070004281BD854
:1054D000DFE800F003090D111500012305B1286074
:1054E00004B1236038BD1FF00CFC0823F6E7FFF77A
:1054F0007DFA0723F2E71FF007FC0923EEE7FFF729
:1055000001FA0C23800AE9E700231846E6E700BF0A
:105510000080005038B5104B0546D3F840320C4699
:1055200003F00303022B0BD0032B0DD0012B0FD163
:105530001FF0E7FB082305B1286004B1236038BDE4
:10554000FFF754FA0723F6E71FF0DEFB0923F2E723
:1055500000231846EFE700BF0080005038B5104B1D
:105560000546D3F800310C4603F00303022B0BD0A1
:10557000032B0DD0012B0FD1FFF7DAF9032305B16F
:10558000286004B1236038BDFFF730FA0723F6E73F
:105590001FF0B5FB0623F2E701230020EFE700BF71
:1055A0000080005038B50C4605461FF0B0FB054B97
:1055B0009A6A54402C4054409C62BDE838401FF029
:1055C000AABB00BF00C00050032814D005D8012892
:1055D00005D0022809D0002005E00F28FBD1084B98
:1055E000186FC0F3013001307047054BD3F89000BD
:1055F000C0F30460F7E7024B186FC0F38020F2E7B6
:10560000008000501FB500230193252817D8DFE83C
:1056100000F0131A1D272C363B51565B60656A78E3
:10562000161A401616561A272C27361A5127783B79
:105630003B3B3B2727275B60FFF74AF90190019826
:1056400005B05DF804FBFFF75DF9F7E7FFF740F9F8
:1056500002460220FFF7B8FFB2FBF0F20192EEE73C
:10566000FFF750F902460320F4E7FFF74BF9024633
:105670000320FFF7A9FFB2FBF0F25208EEE700218A
:1056800001A8FFF77FFEDAE7002101A8FFF750FE2F
:10569000D5E702934FF0E0231B695B0705D5FFF7C1
:1056A00031F90290029B0193C9E703A902A8FFF711
:1056B00091FEF7E7002101A8FFF78CFEBFE700216C
:1056C00001A8FFF7ABFEBAE7002101A8FFF7CAFE69
:1056D000B5E7002101A8FFF7F1FEB0E7002101A81E
:1056E000FFF73CFFABE7094BD3F8803003F003032F
:1056F000022BA8D0032B01D000209FE7FFF732F93F
:105700009CE7002101A8FFF705FF98E70080005003
:1057100008B50120FFF776FFBDE80840034988423D
:1057200094BF01210221032000F002B880F0FA02A8
:10573000032810B50C4627D004D8012804D002282D
:1057400017D010BD0F28FCD11FF05EFB1FF064FBCB
:10575000124A013C136F23F4405343EA04331367A6
:10576000FFF7D0F80021FFF739FDBDE81040FFF743
:10577000CFBF0A4A4C1ED2F8903023F0F85343EAC8
:105780000463C2F89030DCE7044A4C1E136F23F424
:10579000806343EA84231367D3E700BF008000508F
:1057A0001FB500230193252821D8DFE800F013203E
:1057B0002020202A2F454A4F54595E712020342042
:1057C000204A202020202A204520712F2F2F2F20F3
:1057D00020204F54314B1B6F03F00703013B032B79
:1057E00005D8DFE803F00C02080A042301930198AE
:1057F00005B05DF804FB0323F8E70623F6E7022370
:10580000F4E7002001A9FFF7BDFDF0E7002001A9A2
:10581000FFF78EFDEBE702934FF0E0231B695B0778
:1058200005D5FFF76FF80B230393039BDEE703A96E
:1058300002A8FFF7CFFDF8E7002001A9FFF7CAFD96
:10584000D5E7002001A9FFF7E9FDD0E7002001A975
:10585000FFF708FECBE7002001A9FFF72FFEC6E700
:10586000002001A9FFF77AFEC1E70C4BD3F8803086
:1058700003F00303022B03D0032B05D00023B5E76D
:10588000FFF740F80B23B1E7FFF76CF80523ADE70E
:10589000002001A9FFF73EFEA9E700BF00800050ED
:1058A000024A536A23F001035362704700C0075055
:1058B00008B5FFF775FF07280ABF024B4FF6FF70C8
:1058C000188808BD2037002008B5FFF769FF0328B6
:1058D0000ABF024B4FF6FF70188808BD1E37002024
:1058E00038B50546FFF7AAFC204B04465A68012A42
:1058F00004D11F494A609A699207FCD10020FFF742
:105900004FFF042803D11FF07FFA1FF085FA194AD0
:1059100024F0407395421FD0174A95421FD0174A72
:10592000D16811F0060FFBD19068936091684B40ED
:1059300013F4F81F16D12846FEF7C4FF0020FFF726
:105940002FFF042810D1FEF7DDFF0021FFF746FCF2
:10595000BDE83840FFF7DCBE43F00073DFE743F0FB
:105960008073DCE79060E9E738BD00BF00C00150FC
:1059700000E0015040420F0080841E0000000150F2
:10598000F8B504460020FFF70BFF032800F08180E4
:1059900045F60E0302213F4AC2F880303E4B996221
:1059A000012103F580539962936DD903FCD4D4E9A6
:1059B00000131B0543EA0163E17B94F820500B437D
:1059C000217BE77E43EA0143617B6D0143EA0133BA
:1059D000A17B43EA811313619169D4E904031B0697
:1059E00043EA806301F000410B43A17E94F8230059
:1059F0000B43217E43EA0143617E43EA0123936125
:105A0000136AE66923F00D0394F8221043EA870332
:105A100066BB1362966A94F8213045EA031326F0B8
:105A200033052B4343F0010393621C4D194A936DD8
:105A300035EA0303FBD10225174B9D62936D5B0092
:105A4000FCD41369A56823F4700343EA055313617A
:105A50004FF00042104B9A6119B9022203F58053AE
:105A60009A6278B901220E4B9A620BE0334343F0FD
:105A700008031362936A23F0330303432B4343EA7F
:105A80004103936294F824301BB1024B054AC3F8DA
:105A90008020F8BD00C0005000D00050030001403D
:105AA00000E00050F1A7FFFF70B5184CFF28A66A70
:105AB0002AD8A36D13F4803F18BF0122144B18BFDE
:105AC0009A6202229A62A56D15F08045FBD1114AB7
:105AD000A36992F9002023F47F03024423F47F4357
:105AE00082F3080243EA002343EA0243A3613146FA
:105AF0000220FFF757FDA36DDB0303D531460120DC
:105B0000FFF750FD284670BD2125FBE700C000507F
:105B100000D000503C320020014B93F90000704748
:105B20003C32002001231248124A816A9362836D3D
:105B300003F00303032BFAD1022393620C4A936D03
:105B40005800FCD40C48936D30EA0303FBD10122CA
:105B5000084B1A65A3F580539A6D9207FCD49A6D91
:105B60009007FCD59A6D9207FCD50320FFF71ABD6C
:105B700000C0005000D0005003000100F0B5D0E993
:105B800001434FF4D1560227164A417805785662F0
:105B9000154E4F2977604FF0010728BF4F2106F5BA
:105BA000805677601669F603FCD441EA05215161FD
:105BB0001B01417B43EA04230B43017B43EA41037E
:105BC0009360C37B817B1B0143EA4113417C0B4300
:105BD000017C43EA41035360837C13B16FF4D153DA
:105BE0005362F0BD0000025000100250014B1880BB
:105BF000704700BF20370020014B1880704700BF5E
:105C00001E370020284B984242D01AD8A3F5B7037C
:105C1000A3F55863984237D00CD8244B984225D02E
:105C2000234B98422AD0234B984217D00023224A74
:105C300093607047214B9842F8D1214BD3F8BC3088
:105C40001FE0204B984227D01F4B984228D01F4B73
:105C50009842EBD11A4BD3F8C83012E0184BD3F866
:105C6000A03023F0407343F00073E0E7144BD3F807
:105C7000A03023F0407343F08073D8E7104BD3F883
:105C8000A03023F04073D2E70D4BD3F8B830F8E7DB
:105C90000B4BD3F8C030F4E7094BD3F8CC30F0E726
:105CA000074BD3F8D030ECE7C0EA210180841E0016
:105CB00000093D0040420F000040015A0024F4005A
:105CC0000080E00F0048E801005A620280BA8C01AF
:105CD0000C4A10B51369044643F00403136103F042
:105CE00085FC1FF0B1F8084B084AC3F8202430BFE8
:105CF0001FF0ABF803F09CFC1CB9BDE81040FEF7A8
:105D000001BE10BD00ED00E000E003500000FFFF09
:105D10000A4A10B51369044643F004031361084BA3
:105D2000084AC3F8202403F061FC30BF03F080FC74
:105D30001CB9BDE81040FEF7E5BD10BD00ED00E068
:105D400000E003500000FFFF034A0179D36E23F007
:105D500030030B43D366704700400050F8B504464B
:105D60000D461F4616464AB101238B403021184A82
:105D700001FB0022F7B141F21001535004EB440340
:105D8000072D4FF00F014FEA031316D8A80006FAAB
:105D900000F281400F4818441FF05AF84EB9012311
:105DA00030210B4AAB4001FB042277B141F21001D4
:105DB0005350F8BD42F21001DFE7A5F10800800062
:105DC00006FA00F281400448E5E742F21001EFE7ED
:105DD00000C0035004C003500CC00350F8B5054682
:105DE0000E4614465AB303F00307836823F4407346
:105DF00083601EF08CFFAA6882EA072303F44073D5
:105E00005340AB601EF087FF36B9104B9D4217D14F
:105E10001620FFF7F7FB0646AB680D4BDA5D6243D1
:105E20000DD0A2EBC403013B3344B3FBF2F3AA68E9
:105E3000013B920702D5002B08BF0123AB61F8BDDF
:105E4000044B9D42E8D11720E3E700BF0000015A50
:105E5000191704000080065038B500230E4A036469
:105E600000F50053DA634A7804460D4600F1080352
:105E70007AB903F5805302221A602046D5E901124F
:105E80002B7BFFF7ABFF20462978BDE838401EF09A
:105E9000EFBF03F50053EEE7FFFF1F00874B70B520
:105EA000984219D0864B984240F00581854B9968FD
:105EB000C26B12F4C06F15D091050FD5FD225A7038
:105EC00009221A700022026493F90110012900D1FD
:105ED0005A7093F9010070BD7B4BE8E75605EFD58A
:105EE000FE22ECE71C78082C00F2E180DFE814F0D9
:105EF00009001F004500530070007E009C00A700B1
:105F0000D6004C880A88E5060AD5120A02F0060275
:105F100042F0F002012119704263C1600120DAE70A
:105F200002F0FE02A10748BF42F00102F2E71606A6
:105F300008D5802100F50052D1634FF608721A800F
:105F4000022318E05506E9D5402400F50052D46339
:105F50004A88D40604D502221A700B784363DDE721
:105F600096076AD507221A701B7901EBC3031B89B8
:105F7000012BD3D10823C360D0E71506D9D454062A
:105F8000CCD5402400F50052D4634A88920754D5FA
:105F900003221A708CE74C880A88E60643BF120A6F
:105FA00002F0060242F0F00202F0FE02650709D597
:105FB0001C7942F0010201EBC4010989012904BFE7
:105FC0000821C160042119700123C3604263A5E761
:105FD0001406AED45206A1D5402400F50052D46375
:105FE0004A88560729D507221A7097E71A795D88DB
:105FF00001EBC2042689AE420FD800240132D2B28E
:106000001A715C804C886507C2D4E40702D4012A67
:106010007FF64EAF08221A7092E76268691C5980B9
:10602000525D42630622DFE7160682D455067FF5ED
:1060300075AF402400F50052D4630522A9E7940609
:106040007FF56CAF456A214C46691A793440B4F546
:10605000003F04BF466A4FF4005601EBC20100F551
:1060600000540A8908BFE6632026E6635C88A242E2
:1060700081BF4968661C5E800D5559888A42C9D91E
:106080000424012AC46004D0013A914201D10822BB
:10609000C2601A78092A3FF415AF3FE7D2057FF5B1
:1060A0003DAF4FF4807100F50052D16308E74FF621
:1060B00009321A8006E76FF003000CE70000015A6E
:1060C000008006503C1B0020301B002020000200F6
:1060D0001C4B10B4984207D01B4B98422ED06FF047
:1060E00003005DF8044B7047184B0269D20744BFA8
:1060F0002022C2604A88940702D50C89002CEED079
:10610000520702D50A8A002AE9D04FF480721A6039
:10611000002299601A71C023C3604369DB050FD464
:10612000202200F50053DA63094A5DF8044BDA6374
:10613000036C43F4FC630364FFF7B0BE054BD4E784
:10614000436AEAE70000015A00800650301B002035
:10615000FFFF1F003C1B002008B5152001F0DEFFEB
:106160000022FF21024B5A6599625A6008BD00BFA8
:1061700000000450044A054B002908BF13460122C1
:1061800082401A60704700BF401004504020045005
:1061900010B50446417802780120104B1206586071
:1061A0009A60A278152042EA01429A61FF229A621F
:1061B00000229A631A644FF000425A654FF0FF3292
:1061C00003F500531A6501F0C9FF1520E17801F0CD
:1061D000D3FFBDE81040152001F0B2BF000004500D
:1061E000F8B50125C3B2DFF88CC0D1F800E09D40BE
:1061F0008F7ACB7A0C46097BCCF850500CF5005CBA
:106200004CF820E04FF0300E184E1B050EFB0060DE
:1062100094F80DC043EA074343EA415322F00302D6
:10622000C0F860C0C36502671EF078FD104B5D6565
:10623000237A13B1336C2B433364637A13B1B36B9A
:106240002B43B3632279A37943EA0243094A93615A
:106250006179E37943EA014305498B61034B556357
:106260009D64BDE8F8401EF05FBD00BF0000045013
:10627000001004500020045010B50124C0B2844026
:106280001EF04CFD044B5A6D22EA04025A659C62D2
:10629000BDE810401EF048BD0000045010B50124B8
:1062A000C0B284401EF03AFD074BDA6A224208D1A0
:1062B0005B6B9C430CBF012400241EF035FD20467F
:1062C00010BD0024F9E700BF0000045041F6713210
:1062D000034BDA63012203F50053DA60704700BF15
:1062E0000000035041F671320121044BDA6303F5DB
:1062F0000052D1600022DA63704700BF00000350F3
:10630000CB784A7810B55B010C7843EA82030A79AE
:10631000234343EA02130C22424302F1B0421363C7
:10632000012C02BF8A78024B43F8202010BD00BF29
:10633000D080035008B54FF0B0435A686AB958B1DD
:106340005B680BB11EF09EFD01210D4B59601EF0E4
:1063500099FD4FF0B043D96008BD5B680BB11EF0EA
:1063600091FD0028F0D11EF08DFD4FF0B0430222C8
:10637000DA601EF087FD0122024B5A60ECE700BF95
:1063800000100058002000584FF0B0414B6810B585
:106390000BB11EF077FD01220B4BC4785A60837855
:1063A000934043EA840344782343047943EA041383
:1063B000447943EAC4038B60044B5A600378C3F109
:1063C0000203CB6010BD00BF002000580010005831
:1063D000054B5B69C3F38512827003F03F021B0B10
:1063E00042700370704700BF00C0075040F6B732DC
:1063F000064B5B689BB293429FBF4FF47A72B3FB2C
:10640000F2F3034AD05C88BF002070470080E00FA1
:106410001D170400014B986CD96C70470080E00F89
:106420000120034B9B680A3303F01F039840704719
:106430000080E00F0D4B984208D1A3F50033C3F85C
:106440008411C36D43F08003C3657047084B9842C5
:1064500004D1A3F51033C3F89411F2E7054B984229
:1064600004BFA3F52033C3F8A411EAE70080055068
:1064700000C005500000065070B5054616461C4683
:1064800019B90320FFF7BEF80146402C1BD003D8F2
:10649000DCB1202C1BD070BD602CFCD1042303FB8D
:1064A00006F2530803EB4113B3FBF2F3094A203B16
:1064B00002EAC303AA6822F06002AA60AA68144331
:1064C000AC60EB61E7E70623E9E71023E7E7082381
:1064D000E5E700BFF8FF7F00012200F580535A6016
:1064E00040F6AA6341F20502436100230D4983602F
:1064F000C365C26000F500520361C361C364916467
:1065000009498365884203D103650023436506E09A
:1065100006498842F8D001F580418842F4D0012331
:1065200053607047FFFF01000080055000C0055018
:1065300070B50D46FFF7D0FF012300F5805673605C
:10654000AB7C04461BB1836843F080438360EB7CE3
:106550001BB12046297DFFF76DFF2A8A6B7B204601
:106560001343EA891343E3602B7BD5E90112FFF75C
:1065700083FF6B7D1BB1A36843F48033A360AB7DC5
:106580001BB1A36843F40043A360EB7D2A7E1B0785
:10659000120502F4E00203F0E0431343A365697EB1
:1065A0001F4A8B1E012B1F4B1DD8944217D002F59A
:1065B0008042944215D002F5804294420CBF0222E0
:1065C0004FF0FF3203EB4213022041F2AC52032999
:1065D000985020D10423F3652B78636170BD0022AD
:1065E000F0E70122EEE7944211D00F4A944210D016
:1065F00002F5804294420CBF02224FF0FF3203EBBF
:106600004213022042F2AC5201299850E1E70022E5
:10661000F5E70122F3E7042204F50053DA65DBE72E
:106620000080055000C0035000C0055038B5044636
:10663000054D28F077F90FCC0FC594E80F0085E8D9
:106640000F00002038BD00BF481B002047F6FF7335
:106650009A42F0B572D0022972D83A4B5B5C022B99
:106660006ED8394DDF0005EBC304A17815F833303F
:10667000012938BF0121012B13D10025E078401AF0
:10668000A84202D80844C0B2F0BD431B6668A0EB24
:10669000530336F913609642D4BF1D4603F1FF3011
:1066A000EEE760680028EFD0B0F90040944204DBC8
:1066B000B0F902409442B8BF144683883D44FF2B92
:1066C00019BFC8224FF0280CB0F90620B0F908C055
:1066D000A2EB04030CBF0126002693FBFCF333441A
:1066E0006E781BB29E4201DD002B01DA731E1BB2D5
:1066F0004FF47A7C01339BB2071D5D1E2DB24FEA29
:10670000C50E00EBC505EA88AD689E4214FB025237
:1067100022EAE27202F15C02B2FBFCF204DD37F81D
:10672000335001339542E8D200EB0E039888904233
:1067300028BF1046884238BF0846A4E7FF20A3E7D9
:106740000020A1E720170400481B00200229F0B513
:1067500060D8314B595C02295CD8304B13F83100BA
:10676000012816D103EBC1039C78D878012C21466F
:1067700038BF0121904294BFC1EB0001C1EB02017F
:10678000001BCAB28242C8BF00225B6833F9120004
:10679000F0BD002A3CD003EBC1035968002939D071
:1067A0009878904202D3B1F90200F1E7DC78B1F9B0
:1067B00000009442ECD95C788B88013CA3F1FF0681
:1067C000734201F10405E4B2734101F10C07DEB23A
:1067D000B44216D805EBC3034FF47A756A43B3F994
:1067E00002405B68D21A04EBD47302EB630292FBA3
:1067F000F4F29042CCDBB1F902009042C8DC10B256
:10680000C6E737F833C05E1C9445E3D33346DEE772
:106810000348BDE70348BBE720170400481B0020DE
:106820000CFEFFFF0080FFFF08B50448FFF7FEFEE7
:10683000BDE80840012028F079B800BF2417040003
:1068400000487047223700207FB50222084B0949D3
:10685000CDE901234FF00073CDE90313052301A90E
:106860004FF0FF30059328F091F807B05DF804FB76
:10687000006A1800000204002DE9F0418CB088463F
:10688000DDE912761D460446002847D0002945D090
:10689000002F43D0002E41D013F00F033ED12048EB
:1068A0002049A360002A08BF0146E361C4E9001340
:1068B000404609A91EF066FC68BB204609991EF0F7
:1068C000A5FD294620461EF0A1FD694640461EF062
:1068D00007FD00BB694620461EF084FD404603A923
:1068E0001EF009FDB8B9204603A91EF07BFD0697EE
:1068F0000127204645F0005506A9079708951EF088
:1069000071FD204609A909960A970B951EF074FDA2
:1069100020461EF065FB0CB0BDE8F0812120FAE7AF
:1069200000010004000101042DE9F0418CB088460B
:1069300016461D460446129F00284BD0002949D018
:10694000002A47D0002F45D00B68103B102B41D8B0
:10695000214A22FA03F3D9073CD500231F4A83605A
:10696000C0E90023C36109A940461EF00BFC70BBBF
:10697000204609991EF04AFD294620461EF046FD94
:10698000694640461EF0ACFC08BB694620461EF036
:1069900029FD404603A91EF0AEFCC0B9204603A95C
:1069A0001EF020FD06960126204606A945F000555A
:1069B000079608951EF016FD094B204609A9099770
:1069C0000A960B931EF018FD20461EF009FB0CB032
:1069D000BDE8F0812120FAE7010101000000040474
:1069E00010000020F0B50C4617461E46054695B02F
:1069F000002874D0002972D0002A70D0002B6ED0ED
:106A0000036B0F2B5BD80023364A3846C4E90023BA
:106A1000A360E36111A91EF0B5FB00285BD12046FD
:106A200011991EF0F3FC296B20460F2984BF01F059
:106A30000F0110311EF0EAFC384602A91EF050FC8E
:106A4000002848D1204602A91EF0CCFC384605A9F2
:106A50001EF051FC00283ED1204605A91EF0C2FCC4
:106A60000122214B089509920A932B6B05F1100026
:106A700003F00F0141F000510B900F2B0C920D9180
:106A80000E900F9243F00052109226D90A9B08A94B
:106A900023F0005320460A931EF0A4FC0BA92046C5
:106AA0001EF0A0FC0123119612930F4B204611A952
:106AB00013931EF0A1FC20461EF092FA0BE000F1A9
:106AC0002003019000930122102339462046FFF74E
:106AD000D3FE002897D015B0F0BD0EA9DFE7212026
:106AE000F9E700BF00000404100000202DE9F04F7A
:106AF0009BB00C4690461F460546DDF89090002856
:106B000000F0B280002900F0AF80002A00F0AC80D5
:106B1000002B00F0A980026B02EB09031B09B3EB09
:106B2000121F02F00F0600F0978000234F4A8B607F
:106B3000C1E90023CB61404617A91EF023FB0346A1
:106B4000002840F0858006EB090B204617992BF0B2
:106B50000F0A1EF05BFC514620461EF057FC4046D3
:106B600002A91EF0BDFB0346002871D1204602A9F0
:106B70001EF038FC404605A91EF0BDFB0346002868
:106B800066D14FF00108019005A920461EF02AFCAD
:106B9000374A204608A90895CDF824800A921EF0AD
:106BA00021FC46F00051AAEB060605F1100346F061
:106BB00000560B93CDF830800D910E97CDF83C80A8
:106BC00010960D99204621F000510D910BA90093CC
:106BD0001EF008FC20460EA91EF004FC019B244A6E
:106BE0001193AAF1100343F00053CDF8488013939A
:106BF00005F120031493CDF854801692139B204680
:106C000043F080431393139B11A923F00053139374
:106C10001EF0F2FB204614A91EF0EEFB144A17A941
:106C200020461795CDF8608019921EF0E5FB2046AE
:106C30001EF0D6F9AAEB0B0149440190ABEB0A0216
:106C40000098394428F06FFB019B2A6B4A442A6361
:106C500018461BB0BDE8F08F10304A463946304424
:106C600028F061FB0023F0E72123F1E70302000491
:106C7000100000202DE9FF474FF000080E46174690
:106C80000446CDF80080002859D022B900252846B6
:106C900004B0BDE8F087002951D032F0030902F0BA
:106CA000030A1FD04FF0E063C0E9003801230191CF
:106CB000C0F808800293C0F81C8049F0005301A975
:106CC00003931EF099FB494620461EF09FFB204689
:106CD0001EF086F9054628B14A464146304628F05E
:106CE00004FBD4E7BAF1000FD0D04FF000084FF00A
:106CF000E063C4E900380123CDF804D00293114BBE
:106D0000204601A9C4F80880C4F81C8003931EF033
:106D100073FB042120461EF079FB20461EF060F92B
:106D2000054608B13A46D8E7009A4E44EB000135D3
:106D300022FA03F3AA4506F8013BF7D1A6E721257D
:106D4000A5E700BF04000020F0B50F4616461D461B
:106D5000044693B010B9212013B0F0BD0029FAD039
:106D6000002AF8D0002BF6D0002331461A463846C8
:106D70001EF0ADF90028EFD1304602A91EF052F9FD
:106D80000028E9D138683449029A88426B695ED19B
:106D90009342E0D32B68002BDDD14FF06062384680
:106DA000C4E90023A360E36101A91EF0EBF9002808
:106DB000D2D10199204621F4F06101911EF026FB09
:106DC000694628461EF0DEF90028C5D12046009904
:106DD0001EF01CFB384609A91EF082FA0028BBD120
:106DE000204609A91EF0FEFA38460CA91EF083FAC7
:106DF0000028B1D120460CA91EF0F4FAEB684BB183
:106E0000284606A91EF06CFA0028A5D1204606A93E
:106E10001EF0E8FA304603A91EF06DFA00289BD157
:106E2000204603A91EF0DEFA28460FA91EF063FAD9
:106E3000002891D120460FA91EF0DEFA0325204636
:106E40001EF0CEF8012887D1013DF8D184E7B3EBDD
:106E5000420F9FD27FE700BF200000B070B50E4602
:106E6000154604468AB000285CD000295AD0002A72
:106E700058D0012329461A4630461EF028F900282A
:106E80004ED1B36813F4C04F4CD0AB6803F4C04389
:106E9000B3F5005F46D1254BA060C4E90030E06146
:106EA00007A930461EF06EF9002839D1204607990F
:106EB0001EF0ACFA012302934FF00053204601A9C3
:106EC00003931EF08FFA304604A91EF014FA38BB63
:106ED000204604A91EF086FAEB681BBBAB6803F4DE
:106EE000C043B3F5005F1DD1694628461EF0BDF8CA
:106EF000B0B9009B6A699A4216D32A6943F00053DD
:106F000007920122204607A90892032509931EF043
:106F100073FA20461EF064F8012801D1013DF8D132
:106F20000AB070BD2120FBE71D20F9E70000010237
:106F30001FB5044698B191B100230A4A8360C0E9A5
:106F40000023C361012301910293074B01A903931D
:106F50001EF052FA20461EF043F804B010BD212066
:106F6000FBE700BF000008430400002006289ABF8A
:106F7000014B185C002070471018040030B5154B09
:106F800087B00293144B0390049346F611030D4609
:106F9000059300F077F91428044616D168461EF0D0
:106FA000EBFA4FF0A843032202A95A6319601D614E
:106FB0009A63DA6B9207FCD1142C02D168461EF05A
:106FC000E9FA00F08FF9044601E00028E9D02046F4
:106FD00007B030BD681B0020040000202DE9F04FF1
:106FE000B1B005468C469E46E8466F4EDDF8EC9003
:106FF000409C06F1100A474630687168083603C79E
:107000005645B846F7D13E9B03EB0208C8F1000A8B
:107010000AF00F0AB9F1000F00F09D80C9F10007D6
:1070200007F00F070121DDF8FCB044F00050C4F177
:107030001006CDF810B005910690300200F4F8501B
:1070400040F021000790B9F1000F40F08680CDF8A4
:1070500020D047F00050002D00F0848009912121BC
:107060000A9041EA07210B9142F00050CDF830C060
:107070003D9B08A94FEA0A2C0D910E904CF041005F
:107080000F901093002A75D13E9B119143F000534D
:1070900012933C9B1390149310AB1593434B444AAB
:1070A000169340F611031793424B0021002D08BFA1
:1070B0001346189314AB19933F4B10221A931123C4
:1070C0001B931CAB184628F010F901221D920022D8
:1070D00046F0804603461E96239205B9EB46102CD7
:1070E000CDF880B024AE4BD101232246002130469A
:1070F0002193229428F0F9F820AB002125938F42A8
:1071000018BF334647F0804226923A9A2CA828921C
:107110002993B2FA82F35B0949EA837310222B9117
:107120002A9328F0E2F8B9F1000F00D028AED0443D
:1071300048F080432CA918A82D962E93FFF71EFF28
:1071400030B92DB90346A34225D1002818BF2C2001
:1071500031B0BDE8F08F102764E7CDF820E049F0AA
:10716000005078E7002C3FF479AF04A90991012180
:107170000A9076E73E9B0CAA11924120129388E771
:107180001022002130462193229428F0AEF8002CE2
:10719000B2D10123B1E703F1C0026A4412F8C02C56
:1071A00001331043CFE700BF171804001000002080
:1071B0002C1804003018040004000020F0B5C02989
:1071C0009FB0DDE9244557D0B1F5807F04D08029F8
:1071D00048D029201FB0F0BD01265CB140F23447F1
:1071E0000294102403960494212401970594069593
:1071F00002AC0AE040F2144702941024039604946F
:107200002124059401240197069507940125102453
:10721000089409950A9221220B950C940D92174A15
:107220000AAD0E92164A0F95109242F61102119273
:10723000129313951494159201AA1692D3B112AB1E
:107240001793042318931123199316AB1A901B93C9
:1072500040F61103C9081C911AA806A91D93FFF74F
:107260008DFEB7E7012614B94FF48267C4E74FF4E7
:107270008667B5E70EABE3E70F20ABE728180400FD
:1072800010000010144A38B5D2F8803243F00103E0
:10729000C2F88032114B5B68C3F3080343B14FF06F
:1072A000A842D36B13F0430FFBD11424204638BD02
:1072B0004FF0A843DC6B14F04304FBD1084D2B685E
:1072C0001BB90421284603F095F82B68013343F0DD
:1072D00000432B60EAE700BF0080005000ED00E0B3
:1072E000681B0020014B00205B68704700ED00E048
:1072F000012300F01F02A0F506200949A0F5506007
:107300004009934051F820201A4341F820200549B4
:1073100051F8202022EA030241F82020704700BFE4
:10732000801B00206C1B00200121A0F506230E4AC3
:10733000A3F550635B0900F01F00814052F8230061
:10734000014342F823100949D1E900300344886819
:107350000344C868096903445B1802BFC2E90033EB
:10736000C2E90233136170476C1B0020801B0020B0
:107370002DE9F04FA9B003921D4604460822339E22
:10738000CDE90401414021FA02F34B40980702F194
:10739000080218BF9B00202A1C44F4D18123B4FBAF
:1073A000F3F303EBC313E41A734B04F506241B78C1
:1073B00004F55064002B3ED1FDF7B8FE074620B11E
:1073C0006FF0910029B0BDE8F08F0146402208A877
:1073D00027F08BFF4022394618A827F086FFDFF8F8
:1073E000B481DFF8B491C3460BF10F0ACDF800A0C9
:1073F000102208A95B46D9F8000027F044F80022C3
:10740000014608F1100808AF914246D1CDF800A01E
:107410005B461022D9F8000018A927F03DF84FF07C
:10742000000A834618AFD34541D1544B9845DAD171
:107430000122514B1A704FF0810A4FF00008DFF81B
:107440005CB1A4F50627A7F550635B095BF8232020
:1074500004F01F01CA40D2073DD4494A52F82330F4
:10746000CB40DB072AD5B8F1000F08BFA046812327
:10747000A7F6FF47B7FBF3F303EBC313FF1A07F5B8
:107480000624BAF1010A04F55064DAD1039BBBB1BA
:10749000B8F1000F14D0444619E057F8040BCDE9B9
:1074A0000612FFF725FF079A06990132ACE757F855
:1074B000040BFFF739FF0AF1010AB4E7039B13B984
:1074C0006FF08B007EE7B8F1000F18BF4446349B85
:1074D00000201C6076E7329B13B10023329A1360C0
:1074E0000EB1002333601023DFF8AC9000932A46DE
:1074F00000232146D9F8000013F052FE60BB3299F8
:107500002A68204BC9B99A4206D02146D9F8000012
:1075100013F0DEFE0028D3D1D5E90223DDE9041003
:10752000834208BF8A42A2D1039B002BCFD06B6855
:10753000012BCCD16FF0840044E7102032999A429D
:107540000860E2D1002EE7D033462146D9F800008A
:1075500018AA13F079FE48B10B4B9842D5D00B4BCB
:107560009842D2D00A4B9842D6D029E7329A336853
:1075700012689B1A3360CFE73D320020007108008B
:107580006C1B0020105D175EFFDF00F011E000F0C3
:10759000FEDF00F0006D080058350020801B002041
:1075A0002DE9F04F87B08246894698461646DDF8A9
:1075B00040B02AB1002B4FD040F26C739A424ED8A3
:1075C000BBF1010F4ED8002406F110073946012007
:1075D00005941EF019FE0546002846D021463A467D
:1075E00027F083FE05ABCDE9014300942B46012231
:1075F00050464946FFF7BCFE044680B110F18C0F9F
:1076000008BF6FF08D043A460021284627F06DFE32
:1076100028461EF0DBFD204607B0BDE8F08F144B76
:10762000C5E902A92B60C5F804B02EB13246414627
:1076300005F1100027F077FE059E0E483B462A46CE
:107640003146006813F014FD18B93046FFF750FEBC
:10765000D9E76FF09104D6E76FF08604DBE76FF0AF
:107660009104D8E76FF08504D5E76FF08C04D2E77A
:10767000105D175E583500202DE9F0438DB081462E
:10768000DDE914780E4615461C469BB1B8F1000F93
:1076900005D16FF0860630460DB0BDE8F083002FAF
:1076A000F7D0B7F1005FF4D3C3F1005303F5C03353
:1076B0009F42EED81022002108A827F016FE0022D3
:1076C00007AB029305AB019306AB314600934846E6
:1076D00008ABCDE90522FFF74BFE06460028DAD1BC
:1076E000059BA4B1AB4215D853EA0504D1D1069B42
:1076F0000B48C8F8004000943A46079900682B44AC
:1077000013F04EFD002818BF6FF09106C3E7AB429F
:10771000EDD2BEE75B1B9C4228BF1C46E7E700BFDB
:107720005835002030B58DB00C460546102200219A
:1077300008A827F0DAFD002207AB029305AB0193FE
:1077400006AB21460093284608ABCDE90522FFF79A
:107750000FFE0446D8B9099B012B1BD0079D104B87
:107760002946186813F0B4FDB8B90122A5F506231F
:107770000C49A3F550635B0905F01F00824051F8E6
:1077800023004240284641F82320FFF7CDFD204644
:107790000DB030BD6FF08404F9E76FF09104F6E7A7
:1077A00058350020801B00202DE9F04F93B004468F
:1077B000DDE91E75DDE920689346DDE91C028A4695
:1077C000DDF8889029B96FF08604204613B0BDE833
:1077D000F08FBBF1000FF6D00FB9002DF3D108B92F
:1077E000002AF0D116B9B8F1000FECD1B9F1000FB1
:1077F000E9D02C4A934251D12388B3F5105F4DD183
:107800002022002102A827F070FD202200210AA8D2
:1078100027F06BFD02A81DF0F6FB10B16FF092048B
:10782000D3E720465A4651460AAB1DF015FF0446E1
:107830000028CAD10A981DF003FF04460028C4D1CD
:1078400015B9C9F80050C0E7B74224D27B199E424F
:1078500021D24545B7D839462A46304627F02BFD78
:10786000374615F00F0AAED1CDE900762B465246C9
:107870000AA902A8FFF700F807460028E1D042460F
:107880005146304627F031FD012FC9F800A0C5D17F
:107890006FF08B0499E74545E3D994E76FF08504D1
:1078A00093E700BF004440042DE9F04FB3B00C460D
:1078B00005460021164602A8202298463C9FDDF886
:1078C000009127F012FD202200210AA827F00DFDCB
:1078D0002022002112A827F008FD202200211AA84A
:1078E00027F003FD00213C2223A8229127F0FDFC74
:1078F00034B12EB127B13E9B13B1B9F1000F05D1C0
:107900006FF08604204633B0BDE8F08FB4F800B0C5
:10791000B4F802A00BF4E043B3F5804FF0D0384B3D
:10792000384A2B4043F01063934202D06FF0850435
:10793000E8E70AF10703B8EBD30F4FEAD305DFD32B
:107940003F9B9D4258D81AA81DF05DFB10B16FF007
:107950009204D7E7002301A91AA80193FFF7E8FAD8
:107960000028F4D1019B284A23F07F4393420193DE
:10797000DCD947F212139B45D8D1BAF5807FD5D117
:10798000224B01370A933D9B0D90023323F00303F2
:107990000F93402317936B000E9715901393204677
:1079A0004246314622AF02AB16971DF055FE044603
:1079B0000028A7D10C9B129043F400531AA80C93F3
:1079C0001DF021FB0028C2D112AB0AAA02A91AA8F5
:1079D000FFF7BAF9064610B1482891D1A6E72A4622
:1079E00039463E9827F09FFC3346BB550136402E62
:1079F000FBD1C9F8005085E76FF0890482E700BF2A
:107A00000000FFF6000002090102010020000080D2
:107A1000F8B5134642880C460732072A4FEAD201CE
:107A200001D0A1424DD146680588C768202218467A
:107A3000002127F05AFC360A0346002E44D1002CC0
:107A40003FD041F20102954205D0B5F5885F02D0E2
:107A5000B5F5905F02D15C60002011E0B5F5105FD4
:107A600007D1182C03D0202C01D0102C29D11C6058
:107A7000F1E705F44F42B2F5824F02D06FF0850076
:107A8000F8BDEAB2122AF9D1202CF7D1104A25F01C
:107A9000FF05B5F5E24F02600CD0B5F5824F10D16D
:107AA0004FF4005217F4705F09D017F4864F04D0DA
:107AB0009A60E3E74FF48042F4E742F480629A6010
:107AC000CAE76FF08600DBE76FF08B00D8E700BFF6
:107AD000200000802DE9F04F9A460388144603F4F5
